:100000000C9407010C94DC0B0C940D0C0C943E0C1E
:100010000C946F0C0C94A00C0C94D10C0C94020D4D
:100020000C94330D0C9434010C9434010C94340171
:100030000C9434010C9434010C9434010C9434016C
:100040000C9434010C9434010C9434010C9434015C
:100050000C9434010C9434010C9434010C94640D10
:100060000C9434010C94D7100C94B7110C943401F7
:100070000C9434010C9434010C9434010C9434012C
:100080000C9434010C9434010C9434010C9434011C
:100090000C940F110C94F6110C9434010C9434014F
:1000A0000C9434010C9434010C9434010C943401FC
:1000B0000C9434010C9434010C9434010C943401EC
:1000C0000C9434010C9434010C9434010C944711B9
:1000D0000C9435120C9434010C947F110C9474120E
:1000E0000C94340100002100240027002A002D0078
:1000F0003000330001010000040107010A01000083
:100100002200250028002B002E00310034000201BF
:100110000000050108010B0100002000230026005B
:1001200029002C002F00320000010000030106010D
:10013000090105050505070508080808020202026D
:100140000A0A080804040404010101010101010173
:100150000303030303030303040707070C0C0C0C3E
:100160000C0C0C0C02020202060606060606060627
:100170000B0B0B0B0B0B0B0B0102102020080810B4
:100180002040102040800201020108040201010207
:1001900004081020408080402010080402018004E0
:1001A000020180402010080402010804020101023B
:1001B0000408102040800102040810204080000044
:1001C000090A02080B0C0D070603040100000000D9
:1001D000000000000000000000000000000000001F
:1001E0000000000000000000000011100F000000DF
:1001F00000000000000000000000000000000000FF
:100200000000000071029C07DE136A0295071124AA
:100210001FBECFEFD1E2DEBFCDBF00E00CBF12E0CA
:10022000A0E0B2E0EEE5FEE200E00BBF02C0079006
:100230000D92A835B107D9F71BBE15E0A8E5B2E0CD
:1002400001C01D92A93FB107E1F712E0CAE0D2E078
:1002500004C02297FE010E941E17C430D107C9F7BF
:100260000E9464030C9436010C940000F8940C94E2
:100270002217CF93DF93BC018230910510F462E026
:1002800070E0A091F705B091F805ED01E0E0F0E035
:1002900040E050E021C0888199818617970769F472
:1002A0008A819B81309719F09383828304C0909355
:1002B000F8058093F705FE0134C06817790738F414
:1002C0004115510519F08417950708F4AC01FE019A
:1002D0008A819B819C01E9012097E9F6411551052E
:1002E000A9F1CA01861B970B049708F4BA01E0E054
:1002F000F0E02AC08D919C91119784179507F9F42D
:100300006417750781F412968D919C91139730971D
:1003100019F09383828304C09093F8058093F705C6
:10032000FD0132964CC0CA01861B970BFD01E80FF8
:10033000F91F6193719302978D939C9340C0FD01C7
:10034000828193819C01D9011097A1F68091F505D6
:100350009091F605892B41F480910202909103025D
:100360009093F6058093F5054091040250910502A3
:100370004115510541F44DB75EB78091000290914F
:100380000102481B590B2091F5053091F605CA0171
:10039000821B930B8617970780F0AB014E5F5F4F70
:1003A0008417950750F0420F531F5093F605409362
:1003B000F505F9016193719302C0E0E0F0E0CF012F
:1003C000DF91CF910895CF93DF93009709F450C048
:1003D000EC0122971B821A82A091F705B091F805D3
:1003E000109709F140E050E0AC17BD0708F1BB835E
:1003F000AA83FE0121913191E20FF31FAE17BF07CF
:1004000079F48D919C911197280F391F2E5F3F4FE2
:100410003983288312968D919C9113979B838A83AD
:100420004115510571F4D093F805C093F70520C02C
:1004300012968D919C911397AD01009711F0DC01FC
:10044000D3CFFA01D383C28321913191E20FF31FFD
:10045000CE17DF0769F488819981280F391F2E5F35
:100460003F4FFA01318320838A819B81938382836A
:10047000DF91CF9108958091580290915902019691
:100480009093590280935802089581309105C1F4E8
:100490006F5F7F4FF1F48AE592E068E070E04AE038
:1004A00050E02BE030E00E9491038EE692E06AE09B
:1004B00070E044E150E02EE130E00E94B103089585
:1004C000892B39F46F5F7F4F21F48EE692E00E9412
:1004D0009C05089580E090E06FEF7FEF0E94450259
:1004E000089581E090E06FEF7FEF0E94450208954C
:1004F000CF92DF92EF92FF920F931F9389E795E0DF
:100500000E943913892B41F089E795E00E94D716A4
:10051000709339036093380382E061E020E432E4B1
:100520004FE050E00E943B107093650260936402BC
:1005300082E060E020E432E44FE050E00E943B10B3
:100540009B01AC017093630260936202609164024C
:1005500070916502620F731F882777FD8095982F31
:1005600060936602709367028093680290936902B9
:100570000E94070A2CEE31E548EF5EE30E94FD0A77
:100580009B01AC0160E070E68AE697E40E946C098A
:100590007B018C0160936A0270936B0280936C0202
:1005A00090936D02C0903603D0903703D0927A02B8
:1005B000C09279026091380370913903882777FDE2
:1005C0008095982F0E94070AA80197010E94F008C1
:1005D0000E94D4099B0170933703609336032C1952
:1005E0003D0930933B0320933A030E94A307609197
:1005F0006A0270916B0280916C0290916D020E9470
:1006000055090E94D4099B01AC0189E795E0B90125
:100610004AE050E00E94011660913C0370913D0356
:1006200080913E0390913F030E9455090E94D40996
:100630009B01AC018AE592E0B9010E946B0364E67C
:1006400070E080E090E00E94BA0D1F910F91FF9042
:10065000EF90DF90CF9008950F931F9389E795E077
:1006600040E855E260E070E00E94B31280E06BE386
:1006700072E042E050E00E94600B0AE512E0C8011F
:100680000E947D03C80160E070E00E946B0368EE89
:1006900073E080E090E00E94BA0D1092590210922F
:1006A00058020E94AB0582E390E090933903809357
:1006B0003803109237031092360310923B031092C6
:1006C0003A031F910F9108950E94130E0E942C036C
:1006D0000E947802FDCFEF92FF920F931F937C014F
:1006E0008B01FC0180810E94750EF7011783068340
:1006F0001F910F91FF90EF9008950F931F938C011E
:1007000060E070E00E946B03F801828161E00E946A
:100710000810F801848160E00E9408101F910F9179
:1007200008950F931F93FC01862F142F022F6083CF
:100730007183428353832483358361E00E94550F84
:10074000812F61E00E94550F802F61E00E94550FBC
:100750001F910F910895FC018CE392E091838083B7
:100760000895FC018CE392E0918380837583648318
:1007700057834683318720870895AF92BF92CF92E7
:10078000DF92EF92FF920F931F93CF93DF93FC01C1
:100790009B01A480B5806A157B05D4F1C085D18505
:1007A000C617D707ACF1C680D7806C157D059CF4C1
:1007B0002A193B09B901882777FD8095982F0E9457
:1007C000070A7B018C01CA18DB08B601882777FD70
:1007D0008095982F12C0BE01621B730B882777FD8E
:1007E0008095982F0E94070A7B018C01CC19DD09A6
:1007F000BE01882777FD8095982F0E94070A9B01EC
:10080000AC01C801B7010E946C09E62F692F04C032
:10081000E0E070E080E060E02E2F372F482F562F69
:10082000B901CA01DF91CF911F910F91FF90EF9015
:10083000DF90CF90BF90AF9008952F923F924F924C
:100840005F926F927F928F929F92AF92BF92CF9260
:10085000DF92EF92FF920F931F93DF93CF9300D01D
:100860000F92CDB7DEB7FC011A012B01C480D580F1
:10087000A680B780E084F184B7016C197D098827D0
:1008800077FD8095982F0E94070A69837A838B836E
:100890009C83B701882777FD8095982F0E94070ACF
:1008A0003B014C01EA18FB080027F7FC0095102FCC
:1008B000C801B7010E94070A9B01AC01C201B10146
:1008C0000E94FD0A9B01AC01C401B3010E94F00823
:1008D0003B014C01B601882777FD8095982F0E9437
:1008E000070A7B018C01AC18BD08CC24B7FCC0946E
:1008F000DC2CC601B5010E94070AA20191010E94E9
:10090000FD0A9B01AC01C801B7010E94F1089B01DF
:10091000AC01C401B3010E94F0089B01AC016981E4
:100920007A818B819C810E94F108A20191010E9431
:10093000FD0A20E030E040E05FE30E94FD0A0F90F6
:100940000F900F900F90CF91DF911F910F91FF901B
:10095000EF90DF90CF90BF90AF909F908F907F905F
:100960006F905F904F903F902F9008952F923F92FD
:100970004F925F926F927F928F929F92AF92BF92AF
:10098000CF92DF92EF92FF920F931F93DF93CF935B
:10099000CDB7DEB760970FB6F894DEBF0FBECDBF00
:1009A0008C0149835A836B837C83FC0124803580CE
:1009B00086809780C084D18440E050E060E87FE387
:1009C0000E941D042B013C01C80149815A816B81A1
:1009D0007C810E941D047B018C01B401620D731D9A
:1009E0006C0D7D1D882777FD8095982F0E94070A42
:1009F0009B01AC01C301B2010E94FD0A20E030E07E
:100A000040E450E40E946C096D837E838F83988755
:100A1000C301B201A80197010E94F00869877A8793
:100A20008B879C87B101882777FD8095982F0E943E
:100A3000070A2B013C01B40162197309882777FD6D
:100A40008095982F0E94070A29813A814B815C8109
:100A50000E94FD0A9B01AC01C301B2010E94F10892
:100A60006D877E878F87988BB601882777FD809565
:100A7000982F0E94070A2B013C01C818D908EE24C0
:100A8000D7FCE094FE2CC701B6010E94070A9B0127
:100A9000AC0169817A818B819C810E94FD0A9B0156
:100AA000AC01C301B2010E94F0089B01AC016D854D
:100AB0007E858F8598890E94F1087B018C01AA248C
:100AC00097FCA094BA2CC501B4010E94070A9B01AF
:100AD000AC01C801B7010E94F1089B01AC01698516
:100AE0007A858B859C850E94FD0A20E030E040E4F9
:100AF00050EC0E946C099B01AC016D817E818F815D
:100B000098850E94F10860960FB6F894DEBF0FBE7C
:100B1000CDBFCF91DF911F910F91FF90EF90DF90AC
:100B2000CF90BF90AF909F908F907F906F905F908D
:100B30004F903F902F900895FC018CE392E09183B9
:100B400080830895FC018CE392E091838083CF0140
:100B50000E94FC140895AF92BF92CF92DF92EF9261
:100B6000FF920F931F93E2E0F0E0F0939402E09382
:100B7000930268E87FEF709396026093950210925B
:100B800098021092970288E790E090939A028093DF
:100B9000990203E010E010939F0200939E021092CE
:100BA000A1021092A0029093A3028093A20240EFB0
:100BB00050E05093A5024093A40234E0A32EB12C40
:100BC000B092AA02A092A9029093AC028093AB02C9
:100BD0005093AE024093AD0228E6C22E21E0D22E01
:100BE000D092B002C092AF02A1E0B0E0B09389020F
:100BF000A093880210928B0210928A0270938D0249
:100C000060938C0220E13FEF30938F0220938E029D
:100C100010927E0210927D027093800260937F0298
:100C200030938202209381020F2EF8E9EF2EFEEF1F
:100C3000FF2EF02DF0928402E0928302F093CB021B
:100C4000E093CA027093CD026093CC021092CF025F
:100C50001092CE029093D1028093D0021093D602CC
:100C60000093D5021092D8021092D7029093DA0224
:100C70008093D9025093DC024093DB02B092E102F0
:100C8000A092E0029093E3028093E2025093E50287
:100C90004093E402D092E702C092E602B093C00211
:100CA000A093BF021092C2021092C1027093C402BC
:100CB0006093C3023093C6022093C5021092B5021E
:100CC0001092B4027093B7026093B6023093B902E7
:100CD0002093B802F092BB02E092BA021092EC02AA
:100CE0001092EB021092EE021092ED0222E330E03D
:100CF0003093F0022093EF0284E690E09093F202AA
:100D00008093F102B093F702A093F6023093F902B8
:100D10002093F8029093FB028093FA0226E930E0D8
:100D20003093FD022093FC02F0930203E093010351
:100D300090930403809303033093060320930503E9
:100D400088EC90E0909308038093070310930D03C1
:100D500000930C0330930F0320930E039093110321
:100D6000809310038AEF90E0909313038093120313
:100D700010920D0310920C0310920F0310920E03A9
:100D80001093110300931003109215031092140393
:100D9000B0931703A0931603F0931903E09318037D
:100DA00010921D0310921C03F0931F03E0931E0387
:100DB000F0932103E0932003109225031092240363
:100DC0001093270300932603B0932903A0932803CD
:100DD00010922D0310922C03B0922F03A0922E0399
:100DE0001092310310923003B0933503A093340373
:100DF0001092370310923603F0933903E0933803CF
:100E00001F910F91FF90EF90DF90CF90BF90AF9028
:100E10000895CF93DF9381309105A9F56F5F7F4FE0
:100E200009F080C0CBE7D2E0CE010E94AB032B9645
:100E300082E0C23BD807C1F7C2EBD2E0CE010E94EC
:100E4000AB032B9682E0C93ED807C1F789EE92E04A
:100E50000E94AB0384EF92E00E94AB038FEF92E01D
:100E60000E94AB038AE093E00E94DB0882E193E0FA
:100E70000E94DB088AE193E00E94DB0882E293E0B3
:100E80000E94DB084FC0892B09F04CC06F5F7F4F79
:100E900009F048C0C2E2D3E0E881F9810190F08115
:100EA000E02DCE011995289783E0C230D807A1F72D
:100EB000E091FF02F09100030190F081E02D8FEFAF
:100EC00092E01995E091F402F091F5020190F08121
:100ED000E02D84EF92E01995E091E902F091EA02A9
:100EE0000190F081E02D89EE92E01995CEEDD2E0EF
:100EF000E881F9810190F081E02DCE0119952B97C1
:100F000082E0C73AD807A1F7C7EAD2E0E881F981C1
:100F10000190F081E02DCE0119952B9782E0C0372A
:100F2000D807A1F7DF91CF91089580E090E06FEFAF
:100F30007FEF0E940907089581E090E06FEF7FEF57
:100F40000E94090708952F923F924F925F926F92ED
:100F50007F928F929F92AF92BF92CF92DF92EF9249
:100F6000FF920F931F93CF93DF9380E090E0A0E078
:100F7000B0E080932A0390932B03A0932C03B093AB
:100F80002D0380932E0390932F03A0933003B093EF
:100F900031038093320390933303A0933403B093CF
:100FA0003503AA24BB246DC0E880F9806091360324
:100FB00070913703C2010E94BD03162F272E382ED1
:100FC000892E2BE030E0629EC001639E900D729EE0
:100FD000900D112460913A0370913B038E549D4F04
:100FE0000E94BD03062FD72EC82E992E612F722D79
:100FF000832D982D202F3D2D4C2D592D0E946809B1
:1010000087FD04C0102F2D2C3C2C892CF701EE0FEE
:10101000FF1FEE0FFF1FE65DFC4F9080C180D28066
:101020000381692D7C2D8D2D902F212F322D432D65
:10103000582D0E94F90A18161CF0912E6101082DF6
:10104000EE0CFF1CEE0CFF1C8AE293E0E80EF91E8A
:10105000892D9C2DAD2DB02FF70180839183A28324
:10106000B3830894611C711C2296F5E06F1671041D
:1010700009F09ACF0894A11CB11C25E0A216B10476
:10108000E9F08BE090E0A89E2001A99E500CB89E4C
:10109000500C1124EBE7F2E04E0E5F1EE501CC0F81
:1010A000DD1FC50153E0880F991F5A95E1F7C80F5E
:1010B000D91FCA5FDD4F6624772476CF4AE2242EFB
:1010C00043E0342E0F2EF0E08F2EF0E09F2EF0E064
:1010D000AF2EF0E0BF2EF02D24013501C0E0D0E0AE
:1010E000F101C080D180E280F380C701B60120E029
:1010F00030E040E050E00E94F90A181644F52BE079
:1011000030E0C29F8001C39F100DD29F100D1124AB
:1011100007511D4FC801B701A6010E941D049B0184
:10112000AC01C501B4010E94F1084B015C01F10161
:101130004081518162817381C8010E94B6049B0184
:10114000AC01C301B2010E94F1082B013C012196C0
:1011500024E030E0220E331EC330D10509F0C0CFA9
:10116000C501B40120E030E040E050E00E94680991
:10117000882371F0C301B201A50194010E946C099A
:1011800060933C0370933D0380933E0390933F0331
:10119000DF91CF911F910F91FF90EF90DF90CF9053
:1011A000BF90AF909F908F907F906F905F904F9087
:1011B0003F902F900895FC0184E492E09183808316
:1011C0000895FC0184E492E0918380830895FC01FA
:1011D00084E492E091838083CF010E94FC140895FF
:1011E0005058BB27AA270ED0B3C1A4D130F0A9D143
:1011F00020F031F49F3F11F41EF499C10EF4E095F4
:10120000E7FB64C1E92FB5D180F3BA176207730712
:101210008407950718F071F49EF5E4C10EF4E0958B
:101220000B2EBA2FA02D0B01B90190010C01CA01A0
:10123000A0011124FF27591B99F0593F50F4503E4B
:1012400068F11A16F040A22F232F342F4427585F3D
:10125000F3CF469537952795A795F0405395C9F755
:101260007EF41F16BA0B620B730B840BBAF091500D
:10127000A1F0FF0FBB1F661F771F881FC2F70EC0AC
:10128000BA0F621F731F841F48F48795779567957F
:10129000B795F7959E3F08F0B3CF9395880F08F068
:1012A0009927EE0F97958795089585D180F09F3700
:1012B00040F491110EF497C160E070E080E89FE384
:1012C000089526F01B16611D711D811D05C11FC1EA
:1012D000D9D008F481E008950CD03AC132D140F061
:1012E00029D130F021F45F3F19F0F0C051117BC1DA
:1012F0001EC13FD198F39923C9F35523B1F3951B30
:10130000550BBB27AA2762177307840738F09F5F26
:101310005F4F220F331F441FAA1FA9F333D00E2E95
:101320003AF0E0E830D091505040E695001CCAF702
:1013300029D0FE2F27D0660F771F881FBB1F2617C7
:1013400037074807AB07B0E809F0BB0B802DBF019A
:10135000FF2793585F4F2AF09E3F510568F0B6C0B3
:1013600042C15F3FECF3983EDCF386957795679535
:10137000B795F7959F5FC9F7880F911D969587954B
:1013800097F90895E1E0660F771F881FBB1F62176A
:1013900073078407BA0720F0621B730B840BBA0B28
:1013A000EE1F88F7E095089504D06894B1111BC131
:1013B0000895E7D088F09F5790F0B92F9927B7513B
:1013C000A0F0D1F0660F771F881F991F1AF0BA9509
:1013D000C9F712C0B13081F005D1B1E0089502C162
:1013E000672F782F8827B85F39F0B93FCCF38695FF
:1013F00077956795B395D9F73EF49095809570955C
:1014000061957F4F8F4F9F4F0895E89409C097FBD8
:101410003EF490958095709561957F4F8F4F9F4FCB
:101420009923A9F0F92F96E9BB279395F69587950F
:1014300077956795B795F111F8CFFAF4BB0F11F4D2
:1014400060FF1BC06F5F7F4F8F4F9F4F16C0882379
:1014500011F096E911C0772321F09EE8872F762FAF
:1014600005C0662371F096E8862F70E060E02AF0F0
:101470009A95660F771F881FDAF7880F96958795DC
:1014800097F90895990F0008550FAA0BE0E8FEEFB1
:1014900016161706E807F907C0F012161306E40738
:1014A000F50798F0621B730B840B950B39F40A2631
:1014B00061F0232B242B252B21F408950A2609F40F
:1014C000A140A6958FEF811D811D089597F99F6713
:1014D00080E870E060E00895882371F4772321F0BC
:1014E0009850872B762F07C0662311F499270DC0DB
:1014F0009051862B70E060E02AF09A95660F771F76
:10150000881FDAF7880F9695879597F908959F3F7A
:1015100049F0915028F4869577956795B7959F5F28
:1015200080389F4F880F9695879597F908959FEF7C
:1015300080EC089500240A9416161706180609066A
:10154000089500240A941216130614060506089539
:10155000092E0394000C11F4882352F0BB0F40F4C1
:10156000BF2B11F460FF04C06F5F7F4F8F4F9F4F01
:10157000089557FD9058440F551F59F05F3F71F083
:101580004795880F97FB991F61F09F3F79F08795EA
:101590000895121613061406551FF2CF4695F1DF73
:1015A00008C0161617061806991FF1CF8695710503
:1015B000610508940895E5DFA0F0BEE7B91788F447
:1015C000BB279F3860F41616B11D672F782F882728
:1015D000985FF7CF869577956795B11D9395963966
:1015E000C8F30895E894BB2766277727CB0197F9BE
:1015F000089548DF08F48FEF08950BD0A9CF9ADF44
:1016000028F09FDF18F0952309F060CF90CF1124C8
:10161000EACFAFDFA0F3959FD1F3950F50E0551FB0
:10162000629FF001729FBB27F00DB11D639FAA2737
:10163000F00DB11DAA1F649F6627B00DA11D661F86
:10164000829F2227B00DA11D621F739FB00DA11DA7
:10165000621F839FA00D611D221F749F3327A00D61
:10166000611D231F849F600D211D822F762F6A2FFD
:1016700011249F5750408AF0E1F088234AF0EE0F82
:10168000FF1FBB1F661F771F881F91505040A9F78F
:101690009E3F510570F01ACFA6CF5F3FECF3983E06
:1016A000DCF3869577956795B795F795E7959F5FF6
:1016B000C1F7FE2B880F911D9695879597F9089590
:1016C000883008F078C0E82FF0E0EE0FFF1FE05CF4
:1016D000FC4F718360838330D9F0843030F48130E3
:1016E00009F444C0823060F439C0853051F185304E
:1016F000D8F0863009F446C0873009F05CC04FC08E
:10170000809169008C7F842B80936900E89A08950A
:1017100080916900440F551F440F551F837F842B10
:1017200080936900E99A08958091690074E0440FFC
:10173000551F7A95E1F78F7C842B80936900EA9A94
:1017400008958091690066E0440F551F6A95E1F79E
:101750008F73842B80936900EB9A089580916A00BF
:101760008C7F842B80936A00EC9A089580916A00A4
:10177000440F551F440F551F837F842B80936A00AD
:10178000ED9A089580916A0024E0440F551F2A9530
:10179000E1F78F7C842B80936A00EE9A0895809104
:1017A0006A0096E0440F551F9A95E1F78F73842BDA
:1017B00080936A00EF9A08951F920F920FB60F92CE
:1017C0000BB60F9211242F933F934F935F936F9318
:1017D0007F938F939F93AF93BF93EF93FF938091EA
:1017E000440390914503892B29F0E0914403F09143
:1017F00045031995FF91EF91BF91AF919F918F9103
:101800007F916F915F914F913F912F910F900BBE00
:101810000F900FBE0F901F9018951F920F920FB64A
:101820000F920BB60F9211242F933F934F935F9318
:101830006F937F938F939F93AF93BF93EF93FF9398
:101840008091460390914703892B29F0E09146034C
:10185000F09147031995FF91EF91BF91AF919F913F
:101860008F917F916F915F914F913F912F910F9049
:101870000BBE0F900FBE0F901F9018951F920F92E6
:101880000FB60F920BB60F9211242F933F934F93E5
:101890005F936F937F938F939F93AF93BF93EF93D8
:1018A000FF938091480390914903892B29F0E0919F
:1018B0004803F09149031995FF91EF91BF91AF91C2
:1018C0009F918F917F916F915F914F913F912F9158
:1018D0000F900BBE0F900FBE0F901F9018951F9288
:1018E0000F920FB60F920BB60F9211242F933F93C6
:1018F0004F935F936F937F938F939F93AF93BF9318
:10190000EF93FF9380914A0390914B03892B29F029
:10191000E0914A03F0914B031995FF91EF91BF912C
:10192000AF919F918F917F916F915F914F913F9177
:101930002F910F900BBE0F900FBE0F901F90189518
:101940001F920F920FB60F920BB60F9211242F9386
:101950003F934F935F936F937F938F939F93AF9337
:10196000BF93EF93FF938091400390914103892BA4
:1019700029F0E0914003F09141031995FF91EF9117
:10198000BF91AF919F918F917F916F915F914F9197
:101990003F912F910F900BBE0F900FBE0F901F9095
:1019A00018951F920F920FB60F920BB60F9211243B
:1019B0002F933F934F935F936F937F938F939F9357
:1019C000AF93BF93EF93FF938091420390914303B2
:1019D000892B29F0E0914203F09143031995FF917F
:1019E000EF91BF91AF919F918F917F916F915F9197
:1019F0004F913F912F910F900BBE0F900FBE0F9004
:101A00001F9018951F920F920FB60F920BB60F9260
:101A100011242F933F934F935F936F937F938F93F3
:101A20009F93AF93BF93EF93FF9380914C0390915B
:101A30004D03892B29F0E0914C03F0914D0319954A
:101A4000FF91EF91BF91AF919F918F917F916F9196
:101A50005F914F913F912F910F900BBE0F900FBE52
:101A60000F901F9018951F920F920FB60F920BB602
:101A70000F9211242F933F934F935F936F937F9314
:101A80008F939F93AF93BF93EF93FF9380914E03F8
:101A900090914F03892B29F0E0914E03F0914F0371
:101AA0001995FF91EF91BF91AF919F918F917F9188
:101AB0006F915F914F913F912F910F900BBE0F90BF
:101AC0000FBE0F901F9018951F920F920FB60F9296
:101AD00011242F933F938F939F93AF93BF93809144
:101AE000540390915503A0915603B0915703309140
:101AF00058030196A11DB11D232F2D5F2D3720F016
:101B00002D570196A11DB11D2093580380935403B6
:101B100090935503A0935603B093570380915003BD
:101B200090915103A0915203B09153030196A11DCE
:101B3000B11D8093500390935103A0935203B0932F
:101B40005303BF91AF919F918F913F912F910F9030
:101B50000FBE0F901F9018958FB7F89420915403E3
:101B60003091550340915603509157038FBFB901EF
:101B7000CA0108959B01AC017FB7F894809150038E
:101B800090915103A0915203B091530366B5A89B65
:101B900005C06F3F19F00196A11DB11D7FBFBA2F7F
:101BA000A92F982F8827860F911DA11DB11D62E0D6
:101BB000880F991FAA1FBB1F6A95D1F7BC012DC0C2
:101BC000FFB7F8948091500390915103A091520374
:101BD000B0915303E6B5A89B05C0EF3F19F00196FD
:101BE000A11DB11DFFBFBA2FA92F982F88278E0FD7
:101BF000911DA11DB11DE2E0880F991FAA1FBB1FF7
:101C0000EA95D1F7861B970B885E9340C8F2215066
:101C100030404040504068517C4F2115310541050E
:101C2000510571F60895789484B5826084BD84B5B9
:101C3000816084BD85B5826085BD85B5816085BDC7
:101C4000EEE6F0E0808181608083E1E8F0E01082E0
:101C5000808182608083808181608083E0E8F0E021
:101C6000808181608083E1EBF0E08081846080830B
:101C7000E0EBF0E0808181608083E1E9F0E0808149
:101C800082608083808181608083E0E9F0E08081F0
:101C900081608083E1EAF0E08081826080838081DE
:101CA00081608083E0EAF0E0808181608083E1E20E
:101CB000F1E0808182608083808181608083E0E2C6
:101CC000F1E0808181608083EAE7F0E080818460D8
:101CD0008083808182608083808181608083808135
:101CE000806880831092C10008951F93CF93DF9383
:101CF000182FEB0161E00E94550F209709F4CAC02C
:101D0000CF3FD10509F4C9C0E12FF0E0E254FE4F06
:101D10008491893009F466C08A30B0F48430F1F1DE
:101D2000853040F4823059F1833070F5813009F00C
:101D3000AEC020C0873009F443C0883008F048C0E6
:101D4000863009F0A4C034C08D3009F478C08E30DC
:101D500038F48B3009F45AC08C3008F066C04CC09F
:101D6000803109F480C0813109F487C08F3009F0D7
:101D70008EC06FC084B5806884BDC7BD92C084B575
:101D8000806284BDC8BD8DC08091800080688093D2
:101D90008000D0938900C093880083C08091800028
:101DA000806280938000D0938B00C0938A0079C0BA
:101DB0008091B00080688093B000C093B30071C080
:101DC0008091B00080628093B000C093B40069C07D
:101DD00080919000806880939000D0939900C09388
:101DE00098005FC080919000806280939000D093B3
:101DF0009B00C0939A0055C08091900088608093AA
:101E00009000D0939D00C0939C004BC08091A00097
:101E100080688093A0008091A0008F7B8093A000B9
:101E2000D093A900C093A8003CC08091A00080621C
:101E30008093A000D093AB00C093AA0032C08091E1
:101E4000A00088608093A000D093AD00C093AC0048
:101E500028C080912001806880932001D0932901BF
:101E6000C09328011EC080912001806280932001D0
:101E7000D0932B01C0932A0114C080912001886067
:101E800080932001D0932D01C0932C010AC0C0384B
:101E9000D1051CF4812F60E002C0812F61E00E9417
:101EA0000810DF91CF911F910895CF93DF93482FB2
:101EB00050E0CA0188589E4FFC0134914E5C5E4F41
:101EC000FA018491882369F190E0880F991FFC0141
:101ED000EC51FF4FA591B491FC01E250FF4FC59129
:101EE000D491662351F42FB7F8948C91932F909549
:101EF00089238C93888189230BC0623061F42FB7CA
:101F0000F8948C91932F909589238C938881832BBF
:101F100088832FBF06C09FB7F8948C91832B8C9336
:101F20009FBFDF91CF910895893009F449C08A306D
:101F3000A0F4843051F1853040F4823079F183305F
:101F400000F5813009F063C026C0873079F1883010
:101F500098F5863009F05BC025C08D3009F442C089
:101F60008E3028F48B30B1F18C30C0F52DC080312B
:101F700009F442C0813109F445C08F3009F047C0EF
:101F800037C0809180008F7703C0809180008F7D63
:101F900080938000089584B58F7702C084B58F7DCB
:101FA00084BD08958091B0008F7703C08091B00008
:101FB0008F7D8093B0000895809190008F7707C047
:101FC000809190008F7D03C080919000877F8093E7
:101FD000900008958091A0008F7707C08091A000A5
:101FE0008F7D03C08091A000877F8093A00008951B
:101FF000809120018F7703C0809120018F7D809395
:102000002001089580912001877F80932001089509
:10201000FF920F931F93F62E482F50E0CA0182546F
:102020009E4FFC012491CA0188589E4FFC011491D7
:102030004E5C5E4FFA0104910023C9F0222319F08F
:10204000822F0E94940FE02FF0E0EE0FFF1FE2506E
:10205000FF4FA591B4919FB7F894FF2021F48C9184
:102060001095812302C08C91812B8C939FBF1F916F
:102070000F91FF9008958F929F92AF92BF92CF924F
:10208000DF92EF92FF920F931F93CF93DF93A82FCE
:10209000B0E0CD0188589E4FFC018490AE5CBE4FED
:1020A000FD018491662311F4992401C0982C6FEFEF
:1020B000A62E6FEFB62E6FEFC62E6FE0D62EA222A1
:1020C000B322C422D522682F70E0660F771F685EA6
:1020D0007E4FEE24FF248701FB01A591B4910BC034
:1020E000EA14FB040C051D0509F44EC00894E11C1C
:1020F000F11C011D111D8C918821891589F30CC0DB
:10210000EA14FB040C051D0509F43EC00894E11C0B
:10211000F11C011D111D03C0FB01A591B4918C910F
:102120008821891569F720E030E040E050E0FB01AC
:10213000C591D4910FC0DA01C9018E0D9F1DA01F5A
:10214000B11F8A159B05AC05BD05F1F02F5F3F4F10
:102150004F4F5F4F88818821891569F3CA01B90102
:1021600025E130E040E050E00E94DB169B01AC012D
:10217000205F3F4F4F4F5F4F84E05695479537950F
:1021800027958A95D1F704C020E030E040E050E088
:10219000B901CA01DF91CF911F910F91FF90EF908C
:1021A000DF90CF90BF90AF909F908F9008951F9237
:1021B0000F920FB60F920BB60F9211242F933F93ED
:1021C0004F938F939F93EF93FF934091C60020917D
:1021D000990330919A032F5F3F4F2F733070809196
:1021E0009B0390919C032817390759F0E0919903BC
:1021F000F0919A03E75AFC4F408330939A0320935F
:102200009903FF91EF919F918F914F913F912F9162
:102210000F900BBE0F900FBE0F901F9018951F923E
:102220000F920FB60F920BB60F9211242F933F937C
:102230004F938F939F93EF93FF934091CE00209104
:102240002104309122042F5F3F4F2F733070809113
:102250002304909124042817390759F0E0912104B0
:10226000F0912204EF51FC4F4083309322042093DD
:102270002104FF91EF919F918F914F913F912F9169
:102280000F900BBE0F900FBE0F901F9018951F92CE
:102290000F920FB60F920BB60F9211242F933F930C
:1022A0004F938F939F93EF93FF934091D60020918C
:1022B000A9043091AA042F5F3F4F2F733070809193
:1022C000AB049091AC042817390759F0E091A904A8
:1022D000F091AA04E759FB4F40833093AA0420935E
:1022E000A904FF91EF919F918F914F913F912F9171
:1022F0000F900BBE0F900FBE0F901F9018951F925E
:102300000F920FB60F920BB60F9211242F933F939B
:102310004F938F939F93EF93FF93409136012091BA
:102320003105309132052F5F3F4F2F733070809110
:102330003305909134052817390759F0E09131059C
:10234000F0913205EF50FB4F4083309332052093DC
:102350003105FF91EF919F918F914F913F912F9177
:102360000F900BBE0F900FBE0F901F9018951F92ED
:102370000F920FB60F920BB60F9211242F933F932B
:102380008F939F93EF93FF932091DD033091DE03B2
:102390008091DF039091E0032817390731F4809191
:1023A000C1008F7D8093C10014C0E091DF03F091E4
:1023B000E003E356FC4F20818091DF039091E0031E
:1023C00001968F7390709093E0038093DF032093C6
:1023D000C600FF91EF919F918F913F912F910F90A8
:1023E0000BBE0F900FBE0F901F9018951F920F926B
:1023F0000FB60F920BB60F9211242F933F938F932A
:102400009F93EF93FF932091650430916604809130
:102410006704909168042817390731F48091C90046
:102420008F7D8093C90014C0E0916704F091680427
:10243000EB5DFB4F208180916704909168040196C9
:102440008F73907090936804809367042093CE00FC
:10245000FF91EF919F918F913F912F910F900BBE24
:102460000F900FBE0F901F9018951F920F920FB6EE
:102470000F920BB60F9211242F933F938F939F933C
:10248000EF93FF932091ED043091EE048091EF04DF
:102490009091F0042817390731F48091D1008F7D95
:1024A0008093D10014C0E091EF04F091F004E35563
:1024B000FB4F20818091EF049091F00401968F737F
:1024C00090709093F0048093EF042093D600FF91D6
:1024D000EF919F918F913F912F910F900BBE0F9095
:1024E0000FBE0F901F9018951F920F920FB60F926C
:1024F0000BB60F9211242F933F938F939F93EF93DB
:10250000FF93209175053091760580917705909124
:1025100078052817390731F4809131018F7D809338
:10252000310114C0E0917705F0917805EB5CFA4F2A
:102530002081809177059091780501968F73907036
:10254000909378058093770520933601FF91EF9162
:102550009F918F913F912F910F900BBE0F900FBEC7
:102560000F901F901895AF92BF92DF92EF92FF925B
:102570000F931F93CF93DF93EC017A018B01DD243E
:10258000403081EE580780E0680780E0780711F05E
:10259000DD24D39491E0A92EB12CEC89FD89DD20B6
:1025A00069F0C5010E8C02C0880F991F0A94E2F7EA
:1025B000808360E079E08DE390E005C0108260E800
:1025C00074E88EE190E0A80197010E94FA1621506C
:1025D000304040405040569547953795279580E1CB
:1025E0002030380720F0DD2011F0DD24D6CFE88937
:1025F000F9893083EA89FB892083EE89FF8940814C
:1026000021E030E0C9010A8C02C0880F991F0A94AA
:10261000E2F7482B4083EE89FF894081C9010B8C8A
:1026200002C0880F991F0A94E2F7482B4083EE8975
:10263000FF894081C9010C8C02C0880F991F0A9440
:10264000E2F7482B4083EE89FF8980810D8C02C020
:10265000220F331F0A94E2F7209528232083DF916D
:10266000CF911F910F91FF90EF90DF90BF90AF90AF
:102670000895DC011C96ED91FC911D97E05CFF4FE5
:102680002191319180819181281B390B2F733070FA
:10269000C9010895DC011C96ED91FC911D97E05C49
:1026A000FF4F20813181E054F040DF01AE5BBF4F2E
:1026B0008D919C9111972817390719F42FEF3FEF4F
:1026C00007C08D919C91E80FF91F8081282F30E081
:1026D000C9010895DC011C96ED91FC911D97E05C09
:1026E000FF4F20813181E054F040DF01AE5BBF4FEE
:1026F0008D919C9111972817390719F42FEF3FEF0F
:1027000010C08D919C911197E80FF91F20818D9138
:102710009C91119701968F73907011969C938E9354
:1027200030E0C9010895FC0186859785DC01A05C35
:10273000BF4FFC01EE5BFF4F2D913C9111978081C3
:10274000918128173907C1F70895CF93DF93EC01E2
:10275000EE85FF85E05CFF4F20813181E054F04041
:102760002F5F3F4F2F733070DF01AE5BBF4F8D91F6
:102770009C91119728173907D1F3E05CFF4F8081B6
:102780009181E054F040E80FF91F6083EE85FF85EA
:10279000E05CFF4F31832083EE89FF89208181E057
:1027A00090E00D8C02C0880F991F0A94E2F7282B45
:1027B000208381E090E0DF91CF9108951F931092E4
:1027C0007C0510927B0528EE33E040E050E020933A
:1027D0007D0530937E0540937F05509380056CE422
:1027E00072E070937A056093790589E593E09093A0
:1027F0008605809385058DE993E090938805809305
:10280000870585EC90E090938A058093890584EC98
:1028100090E090938C0580938B0580EC90E09093F2
:102820008E0580938D0581EC90E0909390058093C8
:102830008F0586EC90E0909392058093910514E0CB
:1028400010939305B3E0B0939405A7E0A09395058A
:10285000F5E0F0939605E1E0E093970510929B0573
:1028600010929A0520939C0530939D0540939E05F8
:1028700050939F05709399056093980581EE93E0BE
:102880009093A5058093A40585E294E09093A70515
:102890008093A6058DEC90E09093A9058093A80500
:1028A0008CEC90E09093AB058093AA0588EC90E0C7
:1028B0009093AD058093AC0589EC90E09093AF05C3
:1028C0008093AE058EEC90E09093B1058093B005B7
:1028D0001093B205B093B305A093B405F093B5057A
:1028E000E093B6051092BA051092B9052093BB0586
:1028F0003093BC054093BD055093BE057093B80559
:102900006093B70589E694E09093C4058093C3056E
:102910008DEA94E09093C6058093C50585ED90E01F
:102920009093C8058093C70584ED90E09093CA0505
:102930008093C90580ED90E09093CC058093CB0502
:1029400081ED90E09093CE058093CD0586ED90E0EB
:102950009093D0058093CF051093D105B093D20505
:10296000A093D305F093D405E093D5051092D90533
:102970001092D8052093DA053093DB054093DC05EF
:102980005093DD057093D7056093D60581EF94E0F1
:102990009093E3058093E20585E395E09093E50548
:1029A0008093E40585E391E09093E7058093E60545
:1029B00084E391E09093E9058093E80580E391E05A
:1029C0009093EB058093EA0581E391E09093ED0508
:1029D0008093EC0586E391E09093EF058093EE05FC
:1029E0001093F005B093F105A093F205F093F30571
:1029F000E093F4051F9108950E94E3010895CF929A
:102A0000DF92EF92FF920F931F93CF93DF937C019E
:102A10006B018A01C0E0D0E00FC0D6016D916D015D
:102A2000D701ED91FC910190F081E02DC70119953E
:102A3000C80FD91F015010400115110571F7CE01C3
:102A4000DF91CF911F910F91FF90EF90DF90CF908A
:102A50000895EF92FF920F931F938C01DC01ED918B
:102A6000FC910190F081E02D6DE019957C01D80179
:102A7000ED91FC910190F081E02DC8016AE019957B
:102A80009C012E0D3F1DC9011F910F91FF90EF90EA
:102A90000895CF93DF93DB010D900020E9F71197A4
:102AA000A61BB70BEC01E881F9810280F381E02DD0
:102AB000AD011995DF91CF9108954F925F927F926A
:102AC0008F929F92AF92BF92CF92DF92EF92FF923E
:102AD0000F931F93DF93CF93CDB7DEB7A1970FB6B8
:102AE000F894DEBF0FBECDBF2C01742ECB01223077
:102AF00008F42AE019A231E2C32ED12CCC0EDD1E3F
:102B0000822E9924AA24BB24672D752FA501940138
:102B10000E94FA1679018A01C801B701A501940142
:102B20000E94DB16472D461B0894C108D1084A3085
:102B300014F4405D01C0495CF6014083E114F104E6
:102B40000105110521F07E2C5F2DC801DDCFC201EA
:102B5000B6010E944915A1960FB6F894DEBF0FBECC
:102B6000CDBFCF91DF911F910F91FF90EF90DF903C
:102B7000CF90BF90AF909F908F907F905F904F903D
:102B80000895CF92DF92EF92FF920F931F93CF930E
:102B9000DF93EC016A017B012115310541F4E881E5
:102BA000F9810190F081E02D642F19951FC02A3022
:102BB0003105D1F477FF17C0E881F9810190F081E8
:102BC000E02D6DE219958C0144275527BA014C1967
:102BD0005D096E097F09CE012AE00E945D1598010A
:102BE000280F391F04C02AE00E945D159C01C9010D
:102BF000DF91CF911F910F91FF90EF90DF90CF90D9
:102C00000895CF92DF92EF92FF920F931F936C0182
:102C10007B019A010027F7FC0095102FB801A7014E
:102C20000E94C1158C01C6010E942915080F191FA9
:102C3000C8011F910F91FF90EF90DF90CF90089502
:102C4000CF93DF93EC010E94AC0D688779878A8768
:102C50009B87E881F9810084F185E02DCE011995EB
:102C60009C0197FF15C00E94AC0D288539854A85C7
:102C70005B85621B730B840B950B2C813D814E8110
:102C80005F81621773078407950718F32FEF3FEFF3
:102C9000C901DF91CF910895CF93DF93EC01CE016D
:102CA0000E9420169C0197FD0EC08D32910559F0AF
:102CB000C0970A9740F0E881F9810680F781E02DFE
:102CC000CE011995ECCFC901DF91CF9108959F9264
:102CD000AF92BF92CF92DF92EF92FF920F931F932A
:102CE000CF93DF936C01B62E0E944C16EC0197FF38
:102CF00004C0EE24FF2487014CC09924EE24FF2455
:102D00008701AB2CBB24A7FCB094CA15DB0529F1C5
:102D1000CD32D10519F4992493941FC0CE01C097E8
:102D20000A97D8F4C801B7012AE030E040E050E04B
:102D30000E94DB167B018C01CE01AA2797FDA0958E
:102D4000BA2FE80EF91E0A1F1B1F80ED9FEFAFEF91
:102D5000BFEFE80EF91E0A1F1B1FD601ED91FC9173
:102D60000680F781E02DC6011995C6010E94201644
:102D7000EC01C0970A9748F2CA15DB0531F2992099
:102D800041F010950095F094E094E11CF11C011DB8
:102D9000111DB701C801DF91CF911F910F91FF90D5
:102DA000EF90DF90CF90BF90AF909F90089561E03B
:102DB0000E9467160895629FD001739FF001829F61
:102DC000E00DF11D649FE00DF11D929FF00D839FBA
:102DD000F00D749FF00D659FF00D9927729FB00D57
:102DE000E11DF91F639FB00DE11DF91FBD01CF016A
:102DF00011240895A1E21A2EAA1BBB1BFD010DC0D0
:102E0000AA1FBB1FEE1FFF1FA217B307E407F5079A
:102E100020F0A21BB30BE40BF50B661F771F881F76
:102E2000991F1A9469F760957095809590959B010C
:102E3000AC01BD01CF010895EE0FFF1F0590F49185
:102E4000E02D199412E0CAE0D2E004C0FE010E9415
:0E2E50001E172296CE30D107C9F7F894FFCF97
:102E5E002000F9050000030003000300010000003C
:102E6E00020002000100000000000200010000004C
:102E7E00000000000100010001000100010001003E
:102E8E000100020000000000000000009C05A205E9
:102E9E0000000000E108E70800000000A513FF1481
:082EAE0039136A134A13931350
:00000001FF
